{
  "contractName": "Digest",
  "abi": [
    {
      "anonymous": false,
      "inputs": [
        {
          "indexed": false,
          "internalType": "address",
          "name": "client",
          "type": "address"
        },
        {
          "indexed": false,
          "internalType": "string",
          "name": "corrId",
          "type": "string"
        },
        {
          "indexed": false,
          "internalType": "bytes",
          "name": "digest",
          "type": "bytes"
        }
      ],
      "name": "DigestAdded",
      "type": "event"
    },
    {
      "constant": false,
      "inputs": [
        {
          "internalType": "string",
          "name": "corrId",
          "type": "string"
        },
        {
          "internalType": "bytes",
          "name": "digest",
          "type": "bytes"
        }
      ],
      "name": "addDigest",
      "outputs": [],
      "payable": false,
      "stateMutability": "nonpayable",
      "type": "function"
    },
    {
      "constant": true,
      "inputs": [
        {
          "internalType": "address",
          "name": "client",
          "type": "address"
        },
        {
          "internalType": "string",
          "name": "corrId",
          "type": "string"
        }
      ],
      "name": "getDigest",
      "outputs": [
        {
          "internalType": "bytes",
          "name": "",
          "type": "bytes"
        }
      ],
      "payable": false,
      "stateMutability": "view",
      "type": "function"
    }
  ],
  "bytecode": "0x608060405234801561001057600080fd5b506106fe806100206000396000f3fe608060405234801561001057600080fd5b50600436106100365760003560e01c8063157240551461003b578063a03530aa1461018f575b600080fd5b6101146004803603604081101561005157600080fd5b81019080803573ffffffffffffffffffffffffffffffffffffffff1690602001909291908035906020019064010000000081111561008e57600080fd5b8201836020820111156100a057600080fd5b803590602001918460018302840111640100000000831117156100c257600080fd5b91908080601f016020809104026020016040519081016040528093929190818152602001838380828437600081840152601f19601f8201169050808301925050505050505091929192905050506102e1565b6040518080602001828103825283818151815260200191508051906020019080838360005b83811015610154578082015181840152602081019050610139565b50505050905090810190601f1680156101815780820380516001836020036101000a031916815260200191505b509250505060405180910390f35b6102df600480360360408110156101a557600080fd5b81019080803590602001906401000000008111156101c257600080fd5b8201836020820111156101d457600080fd5b803590602001918460018302840111640100000000831117156101f657600080fd5b91908080601f016020809104026020016040519081016040528093929190818152602001838380828437600081840152601f19601f8201169050808301925050505050505091929192908035906020019064010000000081111561025957600080fd5b82018360208201111561026b57600080fd5b8035906020019184600183028401116401000000008311171561028d57600080fd5b91908080601f016020809104026020016040519081016040528093929190818152602001838380828437600081840152601f19601f820116905080830192505050505050509192919290505050610429565b005b60606000808473ffffffffffffffffffffffffffffffffffffffff1673ffffffffffffffffffffffffffffffffffffffff168152602001908152602001600020826040518082805190602001908083835b602083106103555780518252602082019150602081019050602083039250610332565b6001836020036101000a03801982511681845116808217855250505050505090500191505090815260200160405180910390208054600181600116156101000203166002900480601f01602080910402602001604051908101604052809291908181526020018280546001816001161561010002031660029004801561041c5780601f106103f15761010080835404028352916020019161041c565b820191906000526020600020905b8154815290600101906020018083116103ff57829003601f168201915b5050505050905092915050565b806000803373ffffffffffffffffffffffffffffffffffffffff1673ffffffffffffffffffffffffffffffffffffffff168152602001908152602001600020836040518082805190602001908083835b6020831061049c5780518252602082019150602081019050602083039250610479565b6001836020036101000a038019825116818451168082178552505050505050905001915050908152602001604051809103902090805190602001906104e2929190610624565b507ffd3ac51df6a811ef00d3a5962aecb4d7697cfb61e3bc796533604457c31adf34338383604051808473ffffffffffffffffffffffffffffffffffffffff1673ffffffffffffffffffffffffffffffffffffffff1681526020018060200180602001838103835285818151815260200191508051906020019080838360005b8381101561057d578082015181840152602081019050610562565b50505050905090810190601f1680156105aa5780820380516001836020036101000a031916815260200191505b50838103825284818151815260200191508051906020019080838360005b838110156105e35780820151818401526020810190506105c8565b50505050905090810190601f1680156106105780820380516001836020036101000a031916815260200191505b509550505050505060405180910390a15050565b828054600181600116156101000203166002900490600052602060002090601f016020900481019282601f1061066557805160ff1916838001178555610693565b82800160010185558215610693579182015b82811115610692578251825591602001919060010190610677565b5b5090506106a091906106a4565b5090565b6106c691905b808211156106c25760008160009055506001016106aa565b5090565b9056fea265627a7a72315820e387e93ba5e4b0397af599472d7645494ca011eb9b5b0ec3b13e167737c7769064736f6c634300050c0032",
  "source": "pragma solidity >=0.4.21 <0.6.0;\n\n/**\n * @title A simple digests container\n * @author Andrea Lamparelli\n * @notice This contract can be used to store digests of external operations, each digest is associated to a specific correlation_id\n **/\ncontract Digest {\n    \n    /**\n     * client_addres => (correlation_id => digest)\n     **/\n    mapping (address => mapping (string => bytes)) private digestsMap;\n    \n    /**\n     * @notice Events that notifies that a specific client has added a new digest on a specific correlation identifier\n     * @param client identifies which is the client application that added the new digest\n     * @param corrId is the identifier to which the digest is correlated to\n     * @param digest is a digest of a specific operation performed by the client\n     **/\n    event DigestAdded(address client, string corrId, bytes digest);\n    \n    /**\n     * @notice Function that adds a new digest strictly correlated to an identifier, on behalf of a client application\n     * @param corrId is the identifier to which the new digest has to be associated with\n     * @param digest is the new operation digest that has to be added\n     **/\n    function addDigest(string memory corrId, bytes memory digest) public {\n        digestsMap[msg.sender][corrId] = digest;\n        emit DigestAdded(msg.sender, corrId, digest);\n    }\n    \n    /**\n     * @notice Function used to retrieve a digest for a given client which is associated to a given corrId\n     * @param client is the address from which retrieve the digest\n     * @param corrId is used to retrieve only those digest that are correlated to this id\n     **/\n    function getDigest(address client, string memory corrId) public view returns (bytes memory) {\n        return digestsMap[client][corrId];\n    }\n}",
  "sourcePath": "C:/Users/falazigb/Documents/GitHub/SCIP-CaseStudy/SmartContracts/Ethereum/Digest/contracts/Digest.sol",
  "compiler": {
    "name": "solc",
    "version": "0.5.12+commit.7709ece9.Emscripten.clang"
  },
  "schemaVersion": "3.0.19",
  "updatedAt": "2019-11-28T13:48:45.101Z",
  "networkType": "ethereum",
  "devdoc": {
    "author": "Andrea Lamparelli",
    "methods": {
      "addDigest(string,bytes)": {
        "params": {
          "corrId": "is the identifier to which the new digest has to be associated with",
          "digest": "is the new operation digest that has to be added*"
        }
      },
      "getDigest(address,string)": {
        "params": {
          "client": "is the address from which retrieve the digest",
          "corrId": "is used to retrieve only those digest that are correlated to this id*"
        }
      }
    },
    "title": "A simple digests container"
  },
  "userdoc": {
    "methods": {
      "addDigest(string,bytes)": {
        "notice": "Function that adds a new digest strictly correlated to an identifier, on behalf of a client application"
      },
      "getDigest(address,string)": {
        "notice": "Function used to retrieve a digest for a given client which is associated to a given corrId"
      }
    },
    "notice": "This contract can be used to store digests of external operations, each digest is associated to a specific correlation_id*"
  }
}